{
  "contractName": "CrowdFunding",
  "abi": [
    {
      "inputs": [
        {
          "internalType": "uint256",
          "name": "_target",
          "type": "uint256"
        },
        {
          "internalType": "uint256",
          "name": "_deadline",
          "type": "uint256"
        }
      ],
      "stateMutability": "nonpayable",
      "type": "constructor"
    },
    {
      "inputs": [
        {
          "internalType": "address",
          "name": "",
          "type": "address"
        }
      ],
      "name": "contributors",
      "outputs": [
        {
          "internalType": "uint256",
          "name": "",
          "type": "uint256"
        }
      ],
      "stateMutability": "view",
      "type": "function",
      "constant": true
    },
    {
      "inputs": [],
      "name": "deadline",
      "outputs": [
        {
          "internalType": "uint256",
          "name": "",
          "type": "uint256"
        }
      ],
      "stateMutability": "view",
      "type": "function",
      "constant": true
    },
    {
      "inputs": [],
      "name": "manager",
      "outputs": [
        {
          "internalType": "address",
          "name": "",
          "type": "address"
        }
      ],
      "stateMutability": "view",
      "type": "function",
      "constant": true
    },
    {
      "inputs": [],
      "name": "minimumContribution",
      "outputs": [
        {
          "internalType": "uint256",
          "name": "",
          "type": "uint256"
        }
      ],
      "stateMutability": "view",
      "type": "function",
      "constant": true
    },
    {
      "inputs": [],
      "name": "noOfContributors",
      "outputs": [
        {
          "internalType": "uint256",
          "name": "",
          "type": "uint256"
        }
      ],
      "stateMutability": "view",
      "type": "function",
      "constant": true
    },
    {
      "inputs": [],
      "name": "numRequests",
      "outputs": [
        {
          "internalType": "uint256",
          "name": "",
          "type": "uint256"
        }
      ],
      "stateMutability": "view",
      "type": "function",
      "constant": true
    },
    {
      "inputs": [],
      "name": "raisedAmount",
      "outputs": [
        {
          "internalType": "uint256",
          "name": "",
          "type": "uint256"
        }
      ],
      "stateMutability": "view",
      "type": "function",
      "constant": true
    },
    {
      "inputs": [
        {
          "internalType": "uint256",
          "name": "",
          "type": "uint256"
        }
      ],
      "name": "requests",
      "outputs": [
        {
          "internalType": "string",
          "name": "description",
          "type": "string"
        },
        {
          "internalType": "address payable",
          "name": "recipient",
          "type": "address"
        },
        {
          "internalType": "uint256",
          "name": "value",
          "type": "uint256"
        },
        {
          "internalType": "bool",
          "name": "completed",
          "type": "bool"
        },
        {
          "internalType": "uint256",
          "name": "noOfVoters",
          "type": "uint256"
        }
      ],
      "stateMutability": "view",
      "type": "function",
      "constant": true
    },
    {
      "inputs": [],
      "name": "target",
      "outputs": [
        {
          "internalType": "uint256",
          "name": "",
          "type": "uint256"
        }
      ],
      "stateMutability": "view",
      "type": "function",
      "constant": true
    },
    {
      "inputs": [],
      "name": "sendEth",
      "outputs": [],
      "stateMutability": "payable",
      "type": "function",
      "payable": true
    },
    {
      "inputs": [],
      "name": "getContractBalance",
      "outputs": [
        {
          "internalType": "uint256",
          "name": "",
          "type": "uint256"
        }
      ],
      "stateMutability": "view",
      "type": "function",
      "constant": true
    },
    {
      "inputs": [],
      "name": "refund",
      "outputs": [],
      "stateMutability": "nonpayable",
      "type": "function"
    },
    {
      "inputs": [
        {
          "internalType": "string",
          "name": "_description",
          "type": "string"
        },
        {
          "internalType": "address payable",
          "name": "_recipient",
          "type": "address"
        },
        {
          "internalType": "uint256",
          "name": "_value",
          "type": "uint256"
        }
      ],
      "name": "createRequests",
      "outputs": [],
      "stateMutability": "nonpayable",
      "type": "function"
    },
    {
      "inputs": [
        {
          "internalType": "uint256",
          "name": "_requestNo",
          "type": "uint256"
        }
      ],
      "name": "voteRequest",
      "outputs": [],
      "stateMutability": "nonpayable",
      "type": "function"
    },
    {
      "inputs": [
        {
          "internalType": "uint256",
          "name": "_requestNo",
          "type": "uint256"
        }
      ],
      "name": "makePayment",
      "outputs": [],
      "stateMutability": "nonpayable",
      "type": "function"
    }
  ],
  "bytecode": "0x60806040523480156200001157600080fd5b506040516200186e3803806200186e8339818101604052810190620000379190620000e3565b8160048190555080426200004c919062000159565b600381905550606460028190555033600160006101000a81548173ffffffffffffffffffffffffffffffffffffffff021916908373ffffffffffffffffffffffffffffffffffffffff1602179055505050620001b6565b600080fd5b6000819050919050565b620000bd81620000a8565b8114620000c957600080fd5b50565b600081519050620000dd81620000b2565b92915050565b60008060408385031215620000fd57620000fc620000a3565b5b60006200010d85828601620000cc565b92505060206200012085828601620000cc565b9150509250929050565b7f4e487b7100000000000000000000000000000000000000000000000000000000600052601160045260246000fd5b60006200016682620000a8565b91506200017383620000a8565b9250827fffffffffffffffffffffffffffffffffffffffffffffffffffffffffffffffff03821115620001ab57620001aa6200012a565b5b828201905092915050565b6116a880620001c66000396000f3fe6080604052600436106100e85760003560e01c80635114cb521161008a578063937e09b111610059578063937e09b1146102b35780639fb42b1f146102de578063c59ee1dc14610309578063d4b8399214610334576100e8565b80635114cb5214610207578063590e1ae3146102305780636f9fb98a1461024757806381d12c5814610272576100e8565b80633eb7647b116100c65780633eb7647b1461015f578063481c6a75146101885780634cb6f4a5146101b35780634e260f6f146101dc576100e8565b806306e99fef146100ed5780631f6d4942146100f757806329dcb0cf14610134575b600080fd5b6100f561035f565b005b34801561010357600080fd5b5061011e60048036038101906101199190610d7c565b6104b7565b60405161012b9190610dc2565b60405180910390f35b34801561014057600080fd5b506101496104cf565b6040516101569190610dc2565b60405180910390f35b34801561016b57600080fd5b5061018660048036038101906101819190610f8d565b6104d5565b005b34801561019457600080fd5b5061019d610628565b6040516101aa919061100b565b60405180910390f35b3480156101bf57600080fd5b506101da60048036038101906101d59190611026565b61064e565b005b3480156101e857600080fd5b506101f16107f3565b6040516101fe9190610dc2565b60405180910390f35b34801561021357600080fd5b5061022e60048036038101906102299190611026565b6107f9565b005b34801561023c57600080fd5b506102456109ed565b005b34801561025357600080fd5b5061025c610b5c565b6040516102699190610dc2565b60405180910390f35b34801561027e57600080fd5b5061029960048036038101906102949190611026565b610b64565b6040516102aa959493929190611105565b60405180910390f35b3480156102bf57600080fd5b506102c8610c4f565b6040516102d59190610dc2565b60405180910390f35b3480156102ea57600080fd5b506102f3610c55565b6040516103009190610dc2565b60405180910390f35b34801561031557600080fd5b5061031e610c5b565b60405161032b9190610dc2565b60405180910390f35b34801561034057600080fd5b50610349610c61565b6040516103569190610dc2565b60405180910390f35b60035442106103a3576040517f08c379a000000000000000000000000000000000000000000000000000000000815260040161039a906111ab565b60405180910390fd5b6002543410156103e8576040517f08c379a00000000000000000000000000000000000000000000000000000000081526004016103df90611217565b60405180910390fd5b60008060003373ffffffffffffffffffffffffffffffffffffffff1673ffffffffffffffffffffffffffffffffffffffff1681526020019081526020016000205403610447576006600081548092919061044190611266565b91905055505b346000803373ffffffffffffffffffffffffffffffffffffffff1673ffffffffffffffffffffffffffffffffffffffff168152602001908152602001600020600082825461049591906112ae565b9250508190555034600560008282546104ae91906112ae565b92505081905550565b60006020528060005260406000206000915090505481565b60035481565b600160009054906101000a900473ffffffffffffffffffffffffffffffffffffffff1673ffffffffffffffffffffffffffffffffffffffff163373ffffffffffffffffffffffffffffffffffffffff1614610565576040517f08c379a000000000000000000000000000000000000000000000000000000000815260040161055c90611376565b60405180910390fd5b600060076000600854815260200190815260200160002090506008600081548092919061059190611266565b9190505550838160000190805190602001906105ae929190610c67565b50828160010160006101000a81548173ffffffffffffffffffffffffffffffffffffffff021916908373ffffffffffffffffffffffffffffffffffffffff16021790555081816002018190555060008160030160006101000a81548160ff0219169083151502179055506000816004018190555050505050565b600160009054906101000a900473ffffffffffffffffffffffffffffffffffffffff1681565b60008060003373ffffffffffffffffffffffffffffffffffffffff1673ffffffffffffffffffffffffffffffffffffffff16815260200190815260200160002054116106cf576040517f08c379a00000000000000000000000000000000000000000000000000000000081526004016106c6906113e2565b60405180910390fd5b6000600760008381526020019081526020016000209050600015158160050160003373ffffffffffffffffffffffffffffffffffffffff1673ffffffffffffffffffffffffffffffffffffffff16815260200190815260200160002060009054906101000a900460ff1615151461077b576040517f08c379a00000000000000000000000000000000000000000000000000000000081526004016107729061144e565b60405180910390fd5b60018160050160003373ffffffffffffffffffffffffffffffffffffffff1673ffffffffffffffffffffffffffffffffffffffff16815260200190815260200160002060006101000a81548160ff0219169083151502179055508060040160008154809291906107ea90611266565b91905055505050565b60065481565b600160009054906101000a900473ffffffffffffffffffffffffffffffffffffffff1673ffffffffffffffffffffffffffffffffffffffff163373ffffffffffffffffffffffffffffffffffffffff1614610889576040517f08c379a000000000000000000000000000000000000000000000000000000000815260040161088090611376565b60405180910390fd5b600454600554101561089a57600080fd5b6000600760008381526020019081526020016000209050600015158160030160009054906101000a900460ff16151514610909576040517f08c379a0000000000000000000000000000000000000000000000000000000008152600401610900906114ba565b60405180910390fd5b60026006546109189190611509565b81600401541161095d576040517f08c379a000000000000000000000000000000000000000000000000000000000815260040161095490611586565b60405180910390fd5b8060010160009054906101000a900473ffffffffffffffffffffffffffffffffffffffff1673ffffffffffffffffffffffffffffffffffffffff166108fc82600201549081150290604051600060405180830381858888f193505050501580156109cb573d6000803e3d6000fd5b5060018160030160006101000a81548160ff0219169083151502179055505050565b60035442118015610a015750600454600554105b610a40576040517f08c379a0000000000000000000000000000000000000000000000000000000008152600401610a37906115f2565b60405180910390fd5b60008060003373ffffffffffffffffffffffffffffffffffffffff1673ffffffffffffffffffffffffffffffffffffffff1681526020019081526020016000205411610a8b57600080fd5b60003390508073ffffffffffffffffffffffffffffffffffffffff166108fc6000803373ffffffffffffffffffffffffffffffffffffffff1673ffffffffffffffffffffffffffffffffffffffff168152602001908152602001600020549081150290604051600060405180830381858888f19350505050158015610b14573d6000803e3d6000fd5b5060008060003373ffffffffffffffffffffffffffffffffffffffff1673ffffffffffffffffffffffffffffffffffffffff1681526020019081526020016000208190555050565b600047905090565b6007602052806000526040600020600091509050806000018054610b8790611641565b80601f0160208091040260200160405190810160405280929190818152602001828054610bb390611641565b8015610c005780601f10610bd557610100808354040283529160200191610c00565b820191906000526020600020905b815481529060010190602001808311610be357829003601f168201915b5050505050908060010160009054906101000a900473ffffffffffffffffffffffffffffffffffffffff16908060020154908060030160009054906101000a900460ff16908060040154905085565b60025481565b60085481565b60055481565b60045481565b828054610c7390611641565b90600052602060002090601f016020900481019282610c955760008555610cdc565b82601f10610cae57805160ff1916838001178555610cdc565b82800160010185558215610cdc579182015b82811115610cdb578251825591602001919060010190610cc0565b5b509050610ce99190610ced565b5090565b5b80821115610d06576000816000905550600101610cee565b5090565b6000604051905090565b600080fd5b600080fd5b600073ffffffffffffffffffffffffffffffffffffffff82169050919050565b6000610d4982610d1e565b9050919050565b610d5981610d3e565b8114610d6457600080fd5b50565b600081359050610d7681610d50565b92915050565b600060208284031215610d9257610d91610d14565b5b6000610da084828501610d67565b91505092915050565b6000819050919050565b610dbc81610da9565b82525050565b6000602082019050610dd76000830184610db3565b92915050565b600080fd5b600080fd5b6000601f19601f8301169050919050565b7f4e487b7100000000000000000000000000000000000000000000000000000000600052604160045260246000fd5b610e3082610de7565b810181811067ffffffffffffffff82111715610e4f57610e4e610df8565b5b80604052505050565b6000610e62610d0a565b9050610e6e8282610e27565b919050565b600067ffffffffffffffff821115610e8e57610e8d610df8565b5b610e9782610de7565b9050602081019050919050565b82818337600083830152505050565b6000610ec6610ec184610e73565b610e58565b905082815260208101848484011115610ee257610ee1610de2565b5b610eed848285610ea4565b509392505050565b600082601f830112610f0a57610f09610ddd565b5b8135610f1a848260208601610eb3565b91505092915050565b6000610f2e82610d1e565b9050919050565b610f3e81610f23565b8114610f4957600080fd5b50565b600081359050610f5b81610f35565b92915050565b610f6a81610da9565b8114610f7557600080fd5b50565b600081359050610f8781610f61565b92915050565b600080600060608486031215610fa657610fa5610d14565b5b600084013567ffffffffffffffff811115610fc457610fc3610d19565b5b610fd086828701610ef5565b9350506020610fe186828701610f4c565b9250506040610ff286828701610f78565b9150509250925092565b61100581610d3e565b82525050565b60006020820190506110206000830184610ffc565b92915050565b60006020828403121561103c5761103b610d14565b5b600061104a84828501610f78565b91505092915050565b600081519050919050565b600082825260208201905092915050565b60005b8381101561108d578082015181840152602081019050611072565b8381111561109c576000848401525b50505050565b60006110ad82611053565b6110b7818561105e565b93506110c781856020860161106f565b6110d081610de7565b840191505092915050565b6110e481610f23565b82525050565b60008115159050919050565b6110ff816110ea565b82525050565b600060a082019050818103600083015261111f81886110a2565b905061112e60208301876110db565b61113b6040830186610db3565b61114860608301856110f6565b6111556080830184610db3565b9695505050505050565b7f446561646c696e65206861732070617373656400000000000000000000000000600082015250565b600061119560138361105e565b91506111a08261115f565b602082019050919050565b600060208201905081810360008301526111c481611188565b9050919050565b7f4d696e696d756d20436f6e747269627574696f6e206973206e6f74206d657400600082015250565b6000611201601f8361105e565b915061120c826111cb565b602082019050919050565b60006020820190508181036000830152611230816111f4565b9050919050565b7f4e487b7100000000000000000000000000000000000000000000000000000000600052601160045260246000fd5b600061127182610da9565b91507fffffffffffffffffffffffffffffffffffffffffffffffffffffffffffffffff82036112a3576112a2611237565b5b600182019050919050565b60006112b982610da9565b91506112c483610da9565b9250827fffffffffffffffffffffffffffffffffffffffffffffffffffffffffffffffff038211156112f9576112f8611237565b5b828201905092915050565b7f4f6e6c79206d616e616765722063616e2063616c6c6c20746869732066756e6360008201527f74696f6e00000000000000000000000000000000000000000000000000000000602082015250565b600061136060248361105e565b915061136b82611304565b604082019050919050565b6000602082019050818103600083015261138f81611353565b9050919050565b7f594f75206d75737420626520636f6e7472696275746f72000000000000000000600082015250565b60006113cc60178361105e565b91506113d782611396565b602082019050919050565b600060208201905081810360008301526113fb816113bf565b9050919050565b7f596f75206861766520616c726561647920766f74656400000000000000000000600082015250565b600061143860168361105e565b915061144382611402565b602082019050919050565b600060208201905081810360008301526114678161142b565b9050919050565b7f546865207265717565737420686173206265656e20636f6d706c657465640000600082015250565b60006114a4601e8361105e565b91506114af8261146e565b602082019050919050565b600060208201905081810360008301526114d381611497565b9050919050565b7f4e487b7100000000000000000000000000000000000000000000000000000000600052601260045260246000fd5b600061151482610da9565b915061151f83610da9565b92508261152f5761152e6114da565b5b828204905092915050565b7f4d616a6f7269747920646f6573206e6f7420737570706f727400000000000000600082015250565b600061157060198361105e565b915061157b8261153a565b602082019050919050565b6000602082019050818103600083015261159f81611563565b9050919050565b7f596f7520617265206e6f7420656c696769626c6520666f7220726566756e6400600082015250565b60006115dc601f8361105e565b91506115e7826115a6565b602082019050919050565b6000602082019050818103600083015261160b816115cf565b9050919050565b7f4e487b7100000000000000000000000000000000000000000000000000000000600052602260045260246000fd5b6000600282049050600182168061165957607f821691505b60208210810361166c5761166b611612565b5b5091905056fea2646970667358221220f75815ee9fdb2cb36541cf6a2f8e52cc54ecd1829a9d91fc958e78d1a1f3dcc364736f6c634300080d0033",
  "immutableReferences": {},
  "source": "//SPDX-License-Identifier: MIT\r\npragma solidity >=0.5.0 < 0.9.0;\r\n\r\ncontract CrowdFunding{\r\n    mapping(address=>uint) public contributors; //contributors[msg.sender]=100\r\n    address public manager; \r\n    uint public minimumContribution;\r\n    uint public deadline;\r\n    uint public target;\r\n    uint public raisedAmount;\r\n    uint public noOfContributors;\r\n    \r\n    struct Request{\r\n        string description;\r\n        address payable recipient;\r\n        uint value;\r\n        bool completed;\r\n        uint noOfVoters;\r\n        mapping(address=>bool) voters;\r\n    }\r\n    mapping(uint=>Request) public requests;\r\n    uint public numRequests;\r\n    constructor(uint _target,uint _deadline){\r\n        target=_target;\r\n        deadline=block.timestamp+_deadline; //10sec + 3600sec (60*60)\r\n        minimumContribution=100 wei;\r\n        manager=msg.sender;\r\n    }\r\n    \r\n    function sendEth() public payable{\r\n        require(block.timestamp < deadline,\"Deadline has passed\");\r\n        require(msg.value >=minimumContribution,\"Minimum Contribution is not met\");\r\n        \r\n        if(contributors[msg.sender]==0){\r\n            noOfContributors++;\r\n        }\r\n        contributors[msg.sender]+=msg.value;\r\n        raisedAmount+=msg.value;\r\n    }\r\n    function getContractBalance() public view returns(uint){\r\n        return address(this).balance;\r\n    }\r\n    function refund() public{\r\n        require(block.timestamp>deadline && raisedAmount<target,\"You are not eligible for refund\");\r\n        require(contributors[msg.sender]>0);\r\n        address payable user=payable(msg.sender);\r\n        user.transfer(contributors[msg.sender]);\r\n        contributors[msg.sender]=0;\r\n        \r\n    }\r\n    modifier onlyManger(){\r\n        require(msg.sender==manager,\"Only manager can calll this function\");\r\n        _;\r\n    }\r\n    function createRequests(string memory _description,address payable _recipient,uint _value) public onlyManger{\r\n        Request storage newRequest = requests[numRequests];\r\n        numRequests++;\r\n        newRequest.description=_description;\r\n        newRequest.recipient=_recipient;\r\n        newRequest.value=_value;\r\n        newRequest.completed=false;\r\n        newRequest.noOfVoters=0;\r\n    }\r\n    function voteRequest(uint _requestNo) public{\r\n        require(contributors[msg.sender]>0,\"YOu must be contributor\");\r\n        Request storage thisRequest=requests[_requestNo];\r\n        require(thisRequest.voters[msg.sender]==false,\"You have already voted\");\r\n        thisRequest.voters[msg.sender]=true;\r\n        thisRequest.noOfVoters++;\r\n    }\r\n    function makePayment(uint _requestNo) public onlyManger{\r\n        require(raisedAmount>=target);\r\n        Request storage thisRequest=requests[_requestNo];\r\n        require(thisRequest.completed==false,\"The request has been completed\");\r\n        require(thisRequest.noOfVoters > noOfContributors/2,\"Majority does not support\");\r\n        thisRequest.recipient.transfer(thisRequest.value);\r\n        thisRequest.completed=true;\r\n    }\r\n}",
  "sourcePath": "C:\\Users\\sambi\\Desktop\\My Projects\\ReliefNet\\smart-contract\\contracts\\CrowdFunding.sol",
  "compiler": {
    "name": "solc",
    "version": "0.8.13+commit.abaa5c0e.Emscripten.clang"
  },
  "schemaVersion": "3.4.16",
  "updatedAt": "2024-09-08T19:44:41.682Z",
  "networkType": "ethereum",
  "devdoc": {
    "kind": "dev",
    "methods": {},
    "version": 1
  },
  "userdoc": {
    "kind": "user",
    "methods": {},
    "version": 1
  }
}